:100000000C9434000C943E000C943E000C943E0082
:100010000C943E000C943E000C943E000C943E0068
:100020000C943E000C943E000C943E000C943E0058
:100030000C943E000C943E000C943E000C943E0048
:100040000C943E000C943E000C943E000C943E0038
:100050000C943E000C943E000C943E000C943E0028
:100060000C943E000C943E0011241FBECFEFD8E04C
:10007000DEBFCDBF0E946F000C94D9000C9400002D
:10008000E0EBF0E08081836880831092B20084B15D
:10009000877F84B9E1EBF0E08081816080830895FF
:1000A00084B1866084B9089595B1926095B995B18F
:1000B0009B7F95B98093B300089595B1946095B9ED
:1000C00095B19D7F95B98093B300089585B18B7FDD
:1000D00085B985B18D7F85B91092B10008950E94D0
:1000E00040000E9450002FEF89E698E121508040A7
:1000F0009040E1F700C0000080E40E9454002FEF20
:1001000083ED90E3215080409040E1F700C0000073
:100110000E9466002FEF83ED90E3215080409040D5
:10012000E1F700C000008FEF0E9454002FEF83ED35
:1001300090E3215080409040E1F700C000000E9411
:1001400066002FEF83ED90E3215080409040E1F76F
:1001500000C0000080E40E945D002FEF83ED90E37B
:10016000215080409040E1F700C000000E946600EE
:100170002FEF83ED90E3215080409040E1F700C0E5
:1001800000008FEF0E945D002FEF83ED90E3215080
:1001900080409040E1F700C000000E9466002FEF11
:1001A00083ED90E3215080409040E1F700C00000D3
:0601B000A3CFF894FFCF7D
:00000001FF
