:100000000C9434000C9440000C9462000C943E005C
:100010000C943E000C943E000C943E000C943E0068
:100020000C943E000C943E000C943E000C943E0058
:100030000C943E000C943E000C943E000C943E0048
:100040000C943E000C943E000C943E000C943E0038
:100050000C943E000C943E000C943E000C943E0028
:100060000C943E000C943E0011241FBECFEFD8E04C
:10007000DEBFCDBF0E9484000C9497000C9400005A
:100080001F920F920FB60F9211242F933F938F93CD
:100090009F93EF93FF93289A80E197E229E130E064
:1000A000F9013197F1F70197D9F72898E09AFF9174
:1000B000EF919F918F913F912F910F900FBE0F90D5
:1000C0001F9018951F920F920FB60F9211242F9325
:1000D0003F938F939F93EF93FF93289A80E29EE440
:1000E00029E130E0F9013197F1F70197D9F7289824
:1000F000E19AFF91EF919F918F913F912F910F90F6
:100100000FBE0F901F901895209A549853988BE02B
:1001100080936900E89AE99A789441E028EA31E608
:1001200085B1842785B9C9010197F1F7F9CFF89412
:02013000FFCFFF
:00000001FF
