:100000000C9434000C9449000C9449000C94490061
:100010000C9449000C9449000C9449000C9449003C
:100020000C9449000C9449000C9449000C9449002C
:100030000C9449000C9449000C9449000C9449001C
:100040000C9449000C9449000C9449000C9449000C
:100050000C9449000C9449000C9449000C944900FC
:100060000C9449000C94490011241FBECFEFD8E036
:10007000DEBFCDBF11E0A0E0B1E0EAEEF0E002C0EB
:1000800005900D92AA30B107D9F70E944B000C944D
:1000900073000C9400008FEF84B98CEF8AB98BB990
:1000A00020E06CE772E944ED50E301C020E0E22F6C
:1000B000F0E0E050FF4F808185B9CB010197F1F767
:1000C000489B06C0CA010197F1F74899EFCFEFCFDF
:1000D000499BEDCFCA010197F1F7499BE8CF2F5F0C
:0A00E0002A3020F7E4CFF894FFCF98
:0A00EA003F065B4F666D7D077F6FD8
:00000001FF
