:100000000C9434000C943E000C943E000C943E0082
:100010000C943E000C943E000C943E000C943E0068
:100020000C943E000C943E000C943E000C943E0058
:100030000C943E000C943E000C943E000C943E0048
:100040000C943E000C943E000C943E000C943E0038
:100050000C943E000C943E000C943E000C943E0028
:100060000C943E000C943E0011241FBECFEFD8E04C
:10007000DEBFCDBF0E9485000C94A6000C9400004A
:100080001092C5008CE08093C40088E18093C10089
:1000900086E08093C2000895982F8091C00085FF6C
:1000A000FCCF9093C6000895FC0107C08091C0006A
:1000B00085FFFCCF9093C600319690819923B1F7CC
:1000C00008958091C00087FFFCCF8091C6000895FD
:1000D000DC018091C00087FFFCCF8091C6008C932B
:1000E00090E00BC09F5F8091C00087FFFCCF8091A4
:1000F000C600FD01E90FF11D8083FD01E90FF11D2F
:1001000080818A3079F7108208951092C5008CE0C2
:100110008093C40088E18093C10086E08093C20090
:1001200029E130E08091C00087FFFCCF9091C600AC
:100130008091C00085FFFCCF9093C60088E893E1D2
:10014000F9013197F1F70197D9F7ECCFF894FFCF88
:00000001FF
