:100000000C9434000C9440000C943E000C943E0080
:100010000C943E000C943E000C943E000C943E0068
:100020000C943E000C943E000C943E000C943E0058
:100030000C943E000C943E000C943E000C943E0048
:100040000C943E000C943E000C943E000C943E0038
:100050000C943E000C943E000C943E000C943E0028
:100060000C943E000C943E0011241FBECFEFD8E04C
:10007000DEBFCDBF0E9462000C9469000C940000AA
:100080001F920F920FB60F9211242F933F938F93CD
:100090009F93EF93FF93289A80E197E229E130E064
:1000A000F9013197F1F70197D9F72898E09AFF9174
:1000B000EF919F918F913F912F910F900FBE0F90D5
:1000C0001F901895209A83E080936900E89A7894AD
:0600D000FFCFF894FFCF02
:00000001FF
