:100000000C94B1000C94C6000C94C6000C94C6006D
:100010000C94C6000C94C6000C94C6000C94C60048
:100020000C94C6000C94C6000C94C6000C94C60038
:100030000C94C6000C94C6000C94C6000C94C60028
:100040000C94C6000C94C6000C94C6000C94C60018
:100050000C94C6000C94C6000C94C6000C94C60008
:100060000C94C6000C94C60000407A10F35A00A00D
:10007000724E18090010A5D4E80000E87648170071
:1000800000E40B54020000CA9A3B000000E1F505B1
:10009000000080969800000040420F000000A086FB
:1000A00001000000102700000000E803000000002D
:1000B0006400000000000A000000000001000000D1
:1000C00000002C76D888DC674F0823DFC1DFAE59EB
:1000D000E1B1B796E5E3E453C63AE651997696E87E
:1000E000E6C28426EB898C9B62ED407C6FFCEFBC02
:1000F0009C9F40F2BAA56FA5F490055A2AF75C932D
:100100006B6CF9676DC11BFCE0E40D47FEF520E662
:10011000B500D0ED902E0300943577050080841E45
:10012000080000204E0A000000C80C333333330FA0
:10013000986E12831141EF8D2114893BE65516CF3D
:10014000FEE6DB18D1844B381BF77C1D901DA4BB49
:10015000E424203284725E228100C9F124ECA1E5FE
:100160003D2711241FBECFEFD8E0DEBFCDBF12E088
:10017000A0E0B1E0E8E8F1E102C005900D92AC31F9
:10018000B107D9F70E9403010C94C2080C94000037
:10019000ECE7F0E0808185648083EAE7F0E080812D
:1001A00083688083089580917A00806480937A00C8
:1001B00080917A0086FDFCCF209178003091790003
:1001C000C90108951092C5008CE08093C40088E1B5
:1001D0008093C10086E08093C2000895982F80919B
:1001E000C00085FFFCCF9093C6000895FC0107C0B6
:1001F0008091C00085FFFCCF9093C600319690811E
:100200009923B1F70895AF92BF92CF92DF92EF9208
:10021000FF920F931F93DF93CF93CDB7DEB7649711
:100220000FB6F894DEBF0FBECDBF1092C5008CE0B4
:100230008093C40088E18093C10086E08093C2006F
:1002400080917C00856480937C0080917A00836833
:1002500080937A006E010894C11CD11C99E1A92EEB
:10026000B12C80917A00806480937A0080917A002A
:1002700086FDFCCF2091780030917900B901660F9E
:10028000771F660F771F620F731F80E090E00E9458
:100290001B047B018C0180E091E00E94F600C80104
:1002A000B70120E030E040E85AE30E94210320E05B
:1002B00030E040E05FE30E94C30220E030E048EC21
:1002C00052E40E94210344E021E086010E94670677
:1002D000C6010E94F6008FE091E00E94F60080E1E6
:1002E00097E2F5013197F1F70197D9F7BACFA0E07E
:1002F000B0E0EDE7F1E00C943006DC012B01FA01EF
:100300009C91923008F439C1EB018881823008F465
:1003100033C1943069F4843009F02FC111969C9157
:1003200011978981981709F428C1A3E1B1E025C18B
:10033000843009F421C18230A9F4923009F01DC142
:100340009A01AD0188E0EA010990AE01E901099244
:100350009E018150C1F7E201898111969C91892308
:10036000818308C1923009F407C112962D903C9008
:100370001397EB018A819B811496AD90BD90CD902F
:10038000DC901797EC80FD800E811F819101281B66
:10039000390BB90137FF04C066277727621B730B3F
:1003A000603271050CF061C0121613066CF537014E
:1003B0004801062E04C096948794779467940A9413
:1003C000D2F721E030E040E050E004C0220F331FBC
:1003D000441F551F6A95D2F721503040404050408D
:1003E0002E213F214023512321153105410551057F
:1003F00021F021E030E040E050E079018A01E62878
:10040000F728082919293CC0232BD1F1260E371EC5
:1004100035014601062E04C096948794779467941C
:100420000A94D2F721E030E040E050E004C0220F0F
:10043000331F441F551F6A95D2F72150304040406A
:1004400050402A213B214C215D21211531054105D8
:10045000510521F021E030E040E050E059016A010F
:10046000A628B728C828D9280BC0821593052CF0D8
:100470001C01AA24BB24650103C0EE24FF248701CC
:1004800011969C91D20111968C91981709F445C050
:10049000992339F0A80197012A193B094C095D09F4
:1004A00006C0A60195012E193F09400B510B57FDBF
:1004B00008C0118233822282248335834683578386
:1004C0001DC081E081833382228288279927DC0145
:1004D000821B930BA40BB50B84839583A683B783F0
:1004E0000DC0220F331F441F551F248335834683BD
:1004F00057838281938101979383828324813581FD
:1005000046815781DA01C9010197A109B1098F5FBD
:100510009F4FAF4FBF4328F30BC09183338222829A
:10052000EA0CFB1C0C1D1D1DE482F582068317835B
:1005300083E08083248135814681578157FF1AC02B
:10054000C901AA2797FDA095BA2F81709070A0705D
:10055000B0705695479537952795822B932BA42BF2
:10056000B52B84839583A683B7838281938101967B
:1005700093838283DF0101C0D201CD01CDB7DEB705
:10058000E2E10C944C06A0E2B0E0E9ECF2E00C945D
:100590003C0669837A838B839C832D833E834F83C0
:1005A0005887E9E0EE2EF12CEC0EFD1ECE010196EF
:1005B000B7010E94B8058E010F5E1F4FCE01059650
:1005C000B8010E94B8058A8991E089278A8BC70102
:1005D000B801AE01475E5F4F0E9477010E94E304BD
:1005E000A096E6E00C945806A0E2B0E0EAEFF2E054
:1005F0000C943C0669837A838B839C832D833E8392
:100600004F835887F9E0EF2EF12CEC0EFD1ECE0142
:100610000196B7010E94B8058E010F5E1F4FCE01F3
:100620000596B8010E94B805C701B801AE01475E42
:100630005F4F0E9477010E94E304A096E6E00C94CD
:100640005806A0E2B0E0E7E2F3E00C9430066983DC
:100650007A838B839C832D833E834F835887CE017F
:100660000196BE01675F7F4F0E94B805CE010596D7
:10067000BE016F5E7F4F0E94B8059985923088F069
:1006800089898230C8F0943019F4823051F404C062
:10069000843029F4923081F483E191E0C6C0923035
:1006A00049F420E09A858A89981321E02A87CE01AF
:1006B0000996BBC0823049F420E09A858A89981354
:1006C00021E02A8BCE014196B0C02D843E844F8418
:1006D00058886D887E888F88988CEE24FF24870147
:1006E000AA24BB24650140E050E060E070E0E0E057
:1006F000F0E0C10181709070892BE9F0E60CF71CE5
:10070000081D191D9A01AB012A0D3B1D4C1D5D1DD5
:1007100080E090E0A0E0B0E0E614F70408051905D9
:1007200020F481E090E0A0E0B0E0BA01A901480F18
:10073000591F6A1F7B1FAA0CBB1CCC1CDD1C97FE1B
:1007400008C081E090E0A0E0B0E0A82AB92ACA2A57
:10075000DB2A3196E032F10549F0660C771C881CE3
:10076000991C5694479437942794C3CFFA85EA8905
:100770002B893C898B859C85280F391F2E5F3F4F25
:1007800017C0CA0181709070892B61F0169507958A
:10079000F794E79480E090E0A0E0B0E8E82AF92A36
:1007A0000A2B1B2B76956795579547952F5F3F4FE3
:1007B00077FDE7CF0CC0440F551F661F771F17FD4D
:1007C0004160EE0CFF1C001F111F215030404030D3
:1007D00090E0590790E0690790E4790760F32B8F68
:1007E0003C8FDB01CA018F779070A070B0708034AD
:1007F0009105A105B10561F447FD0AC0E114F104BA
:100800000105110529F0405C5F4F6F4F7F4F407825
:100810001A8EFE1711F081E08A8F4D8F5E8F6F8FD9
:1008200078A383E0898FCE0149960E94E304A096C5
:10083000E2E10C944C06A8E0B0E0E1E2F4E00C94B4
:1008400038067B018C01611571058105910519F44C
:1008500082E0898360C083E089838EE1C82ED12C39
:10086000DC82CB82ED82FE820F831887C801B7013C
:100870000E949404FC013197F7FF3BC022273327E5
:100880002E1B3F0B57016801022E04C0D694C7945B
:10089000B794A7940A94D2F740E050E060E070E08B
:1008A00081E090E0A0E0B0E004C0880F991FAA1F8B
:1008B000BB1F2A95D2F70197A109B1098E219F216B
:1008C000A023B1230097A105B10521F041E050E03C
:1008D00060E070E04A295B296C297D294D835E83A5
:1008E0006F8378878EE190E08E1B9F0B9C838B83B8
:1008F00012C0309781F00E2E04C0EE0CFF1C001FBA
:10090000111F0A94D2F7ED82FE820F831887CE1A48
:10091000DF0ADC82CB821A82CE0101960E94E304B8
:100920002896EAE00C945406EF92FF920F931F93DF
:100930007B018C0180E0E81680E0F80681E0080782
:1009400080E0180788F48FEFE816F104010511051F
:1009500031F028F088E090E0A0E0B0E017C080E03F
:1009600090E0A0E0B0E012C080E0E81680E0F80679
:1009700080E0080781E0180728F088E190E0A0E017
:10098000B0E004C080E190E0A0E0B0E020E230E020
:1009900040E050E0281B390B4A0B5B0B04C0169556
:1009A0000795F794E7948A95D2F7F701E55EFE4F35
:1009B0008081281B310941095109C9011F910F91FB
:1009C000FF90EF900895DF92EF92FF920F931F93A5
:1009D000FC01E480F58006811781D180808182301E
:1009E00048F480E090E0A0E1B0E0E82AF92A0A2B80
:1009F0001B2BA5C0843009F49FC0823021F4EE2463
:100A0000FF24870105C0E114F1040105110519F463
:100A1000E0E0F0E096C0628173819FEF6238790771
:100A20000CF05BC022E83FEF261B370B2A31310563
:100A30002CF020E030E040E050E02AC0B801A701EF
:100A4000022E04C076956795579547950A94D2F77C
:100A500081E090E0A0E0B0E004C0880F991FAA1FD9
:100A6000BB1F2A95D2F70197A109B1098E219F21B9
:100A7000A023B1230097A105B10521F081E090E00A
:100A8000A0E0B0E09A01AB01282B392B4A2B5B2B5D
:100A9000DA01C9018F779070A070B0708034910531
:100AA000A105B10539F427FF09C0205C3F4F4F4F26
:100AB0005F4F04C0215C3F4F4F4F5F4FE0E0F0E0DD
:100AC0002030A0E03A07A0E04A07A0E45A0710F05F
:100AD000E1E0F0E079018A0127C06038710564F532
:100AE000FB01E158FF4FD801C7018F779070A070CC
:100AF000B07080349105A105B10539F4E7FE0DC051
:100B000080E490E0A0E0B0E004C08FE390E0A0E0DB
:100B1000B0E0E80EF91E0A1F1B1F17FF05C016954F
:100B20000795F794E794319687E016950795F79423
:100B3000E7948A95D1F705C0EE24FF248701EFEFF3
:100B4000F0E06E2F679566276795902F9F77D79473
:100B5000DD24D7948E2F8695492F462B582F5D295B
:100B6000B701CA011F910F91FF90EF90DF90089598
:100B7000FC01DB01408151812281622F6F7770E09F
:100B8000221F2227221F9381892F880F822B282F33
:100B900030E0991F9927991F11969C931197211561
:100BA0003105A9F5411551056105710511F482E082
:100BB00037C082E89FEF13969C938E9312979A0109
:100BC000AB0167E0220F331F441F551F6A95D1F711
:100BD00083E08C930DC0220F331F441F551F1296C4
:100BE0008D919C911397019713969C938E931297D6
:100BF000203080E0380780E0480780E4580758F349
:100C000014962D933D934D935C93179708952F3F22
:100C1000310579F4411551056105710519F484E038
:100C20008C93089564FF03C081E08C9312C01C92E2
:100C300010C02F57304013963C932E93129783E0A9
:100C40008C9387E0440F551F661F771F8A95D1F755
:100C5000706414964D935D936D937C9317970895EC
:100C60002F923F924F925F926F927F928F929F92BC
:100C7000AF92BF92CF92DF92EF92FF920F931F93AA
:100C8000CF93DF93CDB7DEB7CA1BDB0B0FB6F8945B
:100C9000DEBF0FBECDBF09942A88398848885F849B
:100CA0006E847D848C849B84AA84B984C884DF800C
:100CB000EE80FD800C811B81AA81B981CE0FD11DF0
:100CC0000FB6F894DEBF0FBECDBFED010895EF92D1
:100CD000FF920F931F93F22FF02E47FD02C0E4E026
:100CE00001C0E4E1242F332727FD309537FF03C0EF
:100CF000309521953F4F4F2D512F0F2FEE2E0E94F3
:100D000088068F2D912F1F910F91FF90EF900895DE
:100D1000A9E0B0E0EEE8F6E00C9434066A01122F88
:100D2000A02EBE2C2BE3201718F42CE3922E02C029
:100D3000902E9394AE014F5F5F4F27E0092D0E94E4
:100D4000EA07BC018981E82EFF24C70189709070F1
:100D5000019711F4ADE209C0B1FE02C0ABE205C0DB
:100D6000B0FC02C0A0E001C0A0E2E3FE3BC0AA23A9
:100D700011F423E001C024E0211710F020E002C0AC
:100D8000121B212FEB2CB4FE02C0322F0AC0F60139
:100D9000322F80E202C0819331503323E1F7C20E3B
:100DA000D11CAA2319F0F601A1936F01F601319627
:100DB000E2FE05C09EE4D6019C9381E404C09EE659
:100DC000D6019C9381E611968C9391833296DF0134
:100DD000832F90E202C09D9381508823E1F7E30FB7
:100DE000F11D40C0E2FE42C0AA2311F423E001C07D
:100DF00024E0211710F020E002C0121B212FEB2C61
:100E0000B4FE02C0922F0AC0F601922F80E202C007
:100E1000819391509923E1F7C20ED11CAA2319F0B6
:100E2000F601A1936F01F6013196E2FE08C089E454
:100E3000D6018C938EE411968C9386E407C089E6E4
:100E4000D6018C938EE611968C9386E6818332963A
:100E5000DF01892F20E202C02D9381508823E1F722
:100E6000E90FF11D10822EEF3FEFAFC016161706E7
:100E70001CF041E050E003C0AB014F5F5F4FAA2080
:100E800019F480E090E003C08A2D90E0019620E004
:100E900030E0AA2311F021E030E0240F351F280FA5
:100EA000391F812F90E02817390714F020E002C085
:100EB000121B212F4B2D50E0CA0180719070B4FCA1
:100EC0000DC0B3FC0BC0F601322F40E202C04193CB
:100ED00031503323E1F7C20ED11C01C0322FAA23B7
:100EE00019F0F601A1936F01892B11F0132F0AC09D
:100EF000F601132F80E302C0819311501123E1F713
:100F0000C30ED11C092D060FBA8090E1892E912CB9
:100F10008E209F20E4FE04C0F1E3BF1609F40150C7
:100F2000101614F001E003C0093008F008E09B013E
:100F300077FF02C020E030E0CB010196821B930BCB
:100F4000FE013196E80FF91F8EE2F82E3B01601A80
:100F500071088A2D90E044275527481B590B8FEFC5
:100F60002F3F380719F4D601FD926D016217730700
:100F70002CF06216730614F4808101C080E32150C6
:100F8000304031962417350724F0D6018D936D013A
:100F9000E6CF2617370749F4B5E3BB1528F0BB1693
:100FA00021F48114910409F481E3F6018193D601BF
:100FB000812F90E202C09C93815011968823D9F72B
:100FC000E10FF11D108220E030E0C9012996EEE02A
:100FD0000C945006283008F027E03327DA01990FE7
:100FE000311D87FD916000966105710539F432600D
:100FF0002E5F3D9330E32A95E1F708959F3F30F04F
:1010000080387105610509F03C5F3C5F3D9391308C
:1010100008F08068911DDF93CF931F930F93FF9289
:10102000EF92192F987F9695E92F96959695E90F4F
:10103000FF27EE53FF4F99273327EE24FF24A70104
:10104000E70105900894079428F4360FE71EF81E70
:10105000491F511D660F771F881F991F0694A1F71E
:101060000590079428F4E70EF81E491F561FC11D6E
:10107000770F881F991F661F0694A1F705900794A4
:1010800028F4F80E491F561FC71FD11D880F991F3E
:10109000661F771F0694A1F70590079420F4490F67
:1010A000561FC71FD81F990F661F771F881F0694EA
:1010B000A9F784911095177041F0D695C79557956B
:1010C0004795F794E7941A95C1F7E8E6F0E068943D
:1010D0001590159135916591959105907FE27395E5
:1010E000E118F10A430B560BC90BD009C0F7E10C0C
:1010F000F11E431F561FC91FD01D7EF4703311F41B
:101100008A95E6CFE894015030F0080F0AF40027E2
:10111000021708F4202F2395022F7A3328F079E361
:101120007D932A95E9F710C07D932A9589F6069458
:1011300097956795379517951794E118F10A430B22
:10114000560BC90BD00998F023957E9173957A338D
:1011500008F070E37C932013B8F77E9170617D9363
:1011600030F0839571E37D9370E32A95E1F71124C4
:10117000EF90FF900F911F91CF91DF91992787FDFD
:0811800090950895F894FFCF4B
:1011880054656D7065726174757265203A2000202F
:101198000D0A000000000000000000000102020328
:1011A80003030304040404040404040505050505F5
:1011B80005050505050505050505050606060606D2
:1011C80006060606060606060606060606060606B7
:1011D80006060606060606060606060707070707A2
:1011E8000707070707070707070707070707070787
:1011F8000707070707070707070707070707070777
:101208000707070707070707070707070707070766
:101218000707070707070707070707080808080851
:101228000808080808080808080808080808080836
:101238000808080808080808080808080808080826
:101248000808080808080808080808080808080816
:101258000808080808080808080808080808080806
:1012680008080808080808080808080808080808F6
:1012780008080808080808080808080808080808E6
:1012880008080808080808080808080808080808D6
:0C129800080808080808080808080800F2
:00000001FF
