:100000000C9434000C943E000C943E000C943E0082
:100010000C943E000C943E000C943E000C943E0068
:100020000C943E000C943E000C943E000C943E0058
:100030000C943E000C943E000C943E000C943E0048
:100040000C943E000C943E000C943E000C943E0038
:100050000C943E000C943E000C943E000C943E0028
:100060000C943E000C943E0011241FBECFEFD8E04C
:10007000DEBFCDBF0E94AE000C94EE000C940000D9
:1000800083E08093B0001092B20082E08093B100D0
:1000900084B1886084B98AB188608AB9089584B1CE
:1000A000866384B9089595B1926195B995B19B7DA8
:1000B00095B9E0EBF0E09081906890839081906238
:1000C00090838093B3008093B400089595B19D7E92
:1000D00095B995B1946295B9E0EBF0E090819068A4
:1000E00090839081906290838093B3008093B4005A
:1000F000089595B1946195B995B19D7D95B9E0EB61
:10010000F0E09081906890839081906290838093DA
:10011000B3008093B400089595B1926295B995B1FA
:100120009B7E95B9E0EBF0E09081906890839081A0
:10013000906290838093B3008093B4000895E0EBC5
:10014000F0E080818F77808380818F7D808385B18F
:10015000877F85B98BB1877F8BB908950E94400056
:100160000E944F002FEF8DE399E421508040904092
:10017000E1F700C0000080E80E9453002FEF83EDFC
:1001800090E3215080409040E1F700C0000080E8FB
:100190000E9479002FEF83ED90E321508040904042
:1001A000E1F700C0000080E80E948C002FEF83ED93
:1001B00090E3215080409040E1F700C000000E9491
:1001C0009F0080E80E9466002FEF83ED90E32150AE
:1001D00080409040E1F700C00000CDCFF894FFCF01
:00000001FF
