:100000000C9434000C943E000C943E000C943E0082
:100010000C943E000C943E000C943E000C943E0068
:100020000C943E000C943E000C943E000C94400056
:100030000C943E000C943E000C943E000C943E0048
:100040000C943E000C943E000C943E000C943E0038
:100050000C943E000C943E000C943E000C943E0028
:100060000C943E000C943E0011241FBECFEFD8E04C
:10007000DEBFCDBF0E9455000C9471000C940000AF
:100080001F920F920FB60F9211248F939F93299A6C
:1000900084ED90E30197F1F72998B19A9F918F91A0
:1000A0000F900FBE0F901F90189584B1836084B994
:1000B000109280008DE08093810082E080936F0039
:1000C00089E399E39093890080938800789441E0D4
:1000D00028EA31E685B1842785B9C9010197F1F78E
:0600E000F9CFF894FFCFF8
:00000001FF
