:100000000EC015C014C013C012C011C010C00FC064
:100010000EC00DC00CC00BC00AC009C008C011241E
:100020001FBECFE5D2E0DEBFCDBF14D03FC0E8CFCA
:1000300082E087B981E886B90895369A3699FECF6D
:1000400024B135B1C9010895B89A83E88ABD89E021
:1000500083BF089582E087B981E886B9B89A83E8BA
:100060008ABD89E083BF24EC39E0369A3699FECF09
:1000700084B195B16FEF70E007D09695969599BDD4
:10008000C9010197F1F7F1CF5527002480FF02C085
:10009000060E571F660F771F6115710521F09695A3
:1000A0008795009799F7952F802D0895F894FFCFA5
:00000001FF
