:100000000C9434000C943E000C943E000C943E0082
:100010000C943E000C943E000C943E000C943E0068
:100020000C943E000C943E000C943E000C943E0058
:100030000C943E000C943E000C943E000C943E0048
:100040000C943E000C943E000C943E000C943E0038
:100050000C943E000C943E000C943E000C943E0028
:100060000C943E000C943E0011241FBECFEFD8E04C
:10007000DEBFCDBF0E9440000C946C000C940000C9
:100080008FEF84B920E0E1E0F0E060E870E044E266
:1000900054EF0CC0CF01022E02C0880F991F0A94A2
:1000A000E2F785B9CA010197F1F72F5F283090F385
:1000B00021E030E0CB01022E02C0959587950A948D
:1000C000E2F785B9CA010197F1F72F5F3F4F27305B
:0C00D000310581F720E0DECFF894FFCF6F
:00000001FF
