:100000000C9434000C943E000C943E000C943E0082
:100010000C943E000C943E000C943E000C943E0068
:100020000C943E000C943E000C943E000C943E0058
:100030000C943E000C943E000C943E000C943E0048
:100040000C943E000C943E000C943E000C943E0038
:100050000C943E000C943E000C943E000C943E0028
:100060000C943E000C943E0011241FBECFEFD8E04C
:10007000DEBFCDBF0E9440000C9456000C940000DF
:100080008FEF84B94FEF29E130E045B988E893E17B
:10009000F9013197F1F70197D9F715B888E893E19D
:1000A000F9013197F1F70197D9F7EFCFF894FFCF26
:00000001FF
