:100000000EC015C014C013C012C011C010C00FC064
:100010000EC00DC00CC00BC00AC009C008C011241E
:100020001FBECFE5D2E0DEBFCDBF02D02AC0E8CFF1
:1000300087B3836187BB83EA8ABD89E083BF80E59C
:100040008CBD20E049E150E00BC029BD28BD2BBD8F
:1000500088E893E1FA013197F1F70197D9F72F5F1B
:100060002F3F99F729BD28BD2BBD88E893E1FA0100
:100070003197F1F70197D9F72150213099F720E016
:06008000E4CFF894FFCF6D
:00000001FF
