:100000000C9434000C943E000C943E000C94400080
:100010000C9462000C9484000C943E000C943E00FE
:100020000C943E000C943E000C943E000C943E0058
:100030000C943E000C943E000C943E000C943E0048
:100040000C943E000C943E000C943E000C943E0038
:100050000C943E000C943E000C943E000C943E0028
:100060000C943E000C943E0011241FBECFEFD8E04C
:10007000DEBFCDBF0E94A6000C94C7000C94000008
:100080001F920F920FB60F9211242F933F938F93CD
:100090009F93EF93FF93289A80E197E229E130E064
:1000A000F9013197F1F70197D9F72898D89AFF917C
:1000B000EF919F918F913F912F910F900FBE0F90D5
:1000C0001F9018951F920F920FB60F9211242F9325
:1000D0003F938F939F93EF93FF93289A80E29EE440
:1000E00029E130E0F9013197F1F70197D9F7289824
:1000F000D89AFF91EF919F918F913F912F910F90FF
:100100000FBE0F901F9018951F920F920FB60F926F
:1001100011242F933F938F939F93EF93FF93289AEC
:1001200080E395E729E130E0F9013197F1F7019794
:10013000D9F72898D89AFF91EF919F918F913F918D
:100140002F910F900FBE0F901F901895209A219815
:100150003898579887E08093680080916B008260A0
:1001600080936B0080916C00816080936C00809123
:100170006D00806880936D00789441E028EA31E654
:1001800085B1842785B9C9010197F1F7F9CFF894B2
:02019000FFCF9F
:00000001FF
