:100000000C9434000C9446000C9446000C9446006A
:100010000C9446000C9446000C9446000C94460048
:100020000C9446000C9446000C9446000C94480036
:100030000C9446000C9446000C9446000C94460028
:100040000C9446000C9446000C9446000C94460018
:100050000C9446000C9446000C9446000C94460008
:100060000C9446000C94460011241FBECFEFD8E03C
:10007000DEBFCDBF11E0A0E0B1E001C01D92A13014
:10008000B107E1F70E9468000C9484000C94000012
:100090001F920F920FB60F9211248F939F9380910E
:1000A00000018F5F8093000180910001853041F451
:1000B000299A84ED90E30197F1F7299810920001B5
:1000C000B19A9F918F910F900FBE0F901F9018952E
:1000D00084B1836084B9109280008BE080938100AA
:1000E00082E080936F0089E09DE390938900809384
:1000F0008800789441E028EA31E685B1842785B903
:0C010000C9010197F1F7F9CFF894FFCF87
:00000001FF
