:100000000C9434000C943E000C943E000C943E0082
:100010000C943E000C943E000C943E000C943E0068
:100020000C943E000C943E000C943E000C943E0058
:100030000C943E000C943E000C943E000C943E0048
:100040000C943E000C943E000C943E000C943E0038
:100050000C943E000C943E000C943E000C943E0028
:100060000C943E000C943E0011241FBECFEFD8E04C
:10007000DEBFCDBF0E9460000C949F000C94000076
:10008000E0E8F0E08081816A8083E1E8F0E080814F
:100090008960808383E88093B00081E08093B10021
:1000A000089590E09093890080938800089580934C
:1000B000B300089590E090938B0080938A00089598
:1000C0008EE084B90E94400021E048E853E10EC070
:1000D000822F80958093B300822F90E090938B00C5
:1000E00080938A00CA010197F1F72F5F2F3F81F7B4
:1000F00021E030E0822F809590E090938B008093F8
:100100008A003093890020938800CA010197F1F793
:100110002F5F3F4F2F3F310569F721E0822F8095F8
:1001200090E090938900809388002093B300CA01E7
:100130000197F1F72F5F2F3F89F721E0C9CFF8949E
:02014000FFCFEF
:00000001FF
