:100000000C9434000C9449000C9449000C94490061
:100010000C9449000C9449000C9449000C9449003C
:100020000C9449000C9449000C9449000C9449002C
:100030000C9449000C9449000C9449000C9449001C
:100040000C9449000C9449000C9449000C9449000C
:100050000C9449000C9449000C9449000C944900FC
:100060000C9449000C94490011241FBECFEFD8E036
:10007000DEBFCDBF11E0A0E0B1E0E2E1F1E002C0FF
:1000800005900D92AC30B107D9F70E946C000C942A
:1000900087000C9400001092C5008CE08093C4008F
:1000A00088E18093C10086E08093C2000895982F74
:1000B0008091C00085FFFCCF9093C6000895FC019D
:1000C00007C08091C00085FFFCCF9093C600319699
:1000D00090819923B1F70895CF93DF931092C500D3
:1000E0008CE08093C40088E18093C10086E0809317
:1000F000C200C9E1D0E080E091E00E945F0080E1B1
:1001000097E2FE013197F1F70197D9F7F4CFF89410
:02011000FFCF1F
:0C01120048656C6C6F20576F726C6400C5
:00000001FF
