:100000000C9434000C943E000C943E000C943E0082
:100010000C943E000C943E000C943E000C943E0068
:100020000C943E000C943E000C943E000C943E0058
:100030000C943E000C943E000C943E000C943E0048
:100040000C943E000C943E000C943E000C943E0038
:100050000C943E000C943E000C943E000C943E0028
:100060000C943E000C943E0011241FBECFEFD8E04C
:10007000DEBFCDBF0E9448000C9462000C940000CB
:10008000569A83E884BD89E085BD089587BD0895AB
:10009000569A83E884BD89E085BD20E048EA51E6B0
:1000A00005C027BDCA010197F1F72F5F2E3FC8F3A6
:1000B0002EEF27BDCA010197F1F721502130C9F772
:0800C00020E0EFCFF894FFCF20
:00000001FF
